:020000040800F2
:10000000C00A0020D50100088B0E0008590E000818
:1000100000000000000000000000000000000000E0
:100020000000000000000000000000005D0F00085C
:1000300000000000000000009301000839100008D3
:10004000E7010008E7010008E7010008E7010008F0
:10005000E7010008E70100080D0D00080F0D00087A
:10006000E7010008E70100080B0D0008E7010008A0
:10007000E7010008E7010008E7010008E7010008C0
:10008000E7010008F710000800000000F510000864
:10009000E7010008E7010008E7010008E7010008A0
:1000A000E7010008E7010008E701000885150008DE
:1000B000E701000800000000E70100080000000060
:1000C00000F002F800F03EF80CA030C80838241800
:1000D0002D18A246671EAB4654465D46AC4201D180
:1000E00000F030F87E460F3E0FCCB6460126334274
:1000F00000D0FB1AA246AB46334318472425000024
:1001000044250000103A02D378C878C1FAD85207C3
:1001100001D330C830C101D504680C6070470000BD
:100120000023002400250026103A01D378C1FBD813
:10013000520700D330C100D50B6070471FB51FBDFB
:1001400010B510BD00F053FC1146FFF7F7FF01F0AA
:10015000E7FA00F06BFC03B4FFF7F2FF03BC00F01A
:100160006FFC0000064B19680868203080F309888E
:10017000022080F314883FBCAE4662B600BD00008A
:1001800024010020EFF3108072B6704780F31088CE
:100190007047EFF309800E4B1A6820381060F0C0EA
:1001A00044464D4656465F46F0C008B572B601F06B
:1001B0004FFD62B60CBC116808681030F0C8A0464C
:1001C000A946B246BB4680F309882038F0C81847D4
:1001D000240100200748804707480047FEE7FEE764
:1001E000FEE7FEE7FEE7FEE704480549054A064B41
:1001F0007047000079100008C1000008C00400200A
:10020000C00A0020C0060020C006002070477047CA
:1002100070470000F0B5F94D0C091E092C402E4026
:100220002F468BB0A7437DD0B543FCD0002E7AD0AB
:10023000002CFCD00D465D40ED0F2543AC1BFF2587
:10024000AD0464190894C502440DC9022143500D40
:10025000DC0204430120C00701430443D2020191A0
:10026000200C110C00958C46010423468B430A9107
:1002700061460904E24D8A430991010A7D44491906
:100280008039097805464D4301266D18F605751B22
:100290006943C90C640B891C4C436418B5012C1BC1
:1002A000250C2E04B4434C434D43210C6918890995
:1002B0000591009DE90701D00121C90704912C4651
:1002C00001996708CD072F434C08059DE10B4D436D
:1002D0002D0C29466646754302950D4645432E462C
:1002E000029D7D1BB44100950D465D4301942C0C8D
:1002F0002F040D465543AE462D0C3D430295039405
:100300007546049C2D04641B049406D2029C039D34
:10031000641C002675410395029401AC70CC009FCB
:100320007D1B01E03EE162E1B441090400950791C3
:1003300001940599A4086143090C0C464443650BDC
:10034000E7040C4666467443A646640B3C4303959B
:1003500002947446049DE4042C1B049406D2029C6F
:10036000039D641C002675410395029401AC70CC7A
:10037000009F7D1BB44101940C465C430095650FC2
:10038000E7000C465443A646640F3C430395029491
:100390007446049DE4002C1B049406D2029C039D29
:1003A000641C002675410395029401AC70CC009F3B
:1003B0007D1BB441AE09AF06049DC900AD092F43B2
:1003C000049DA406AD060495079D34436918079162
:1003D000059DE10B4D432D0C29466646754302955C
:1003E0000D4645432E46029D7D1BB44100950D46AA
:1003F0005D4301942C0C2F040D465543AE462D0C45
:100400003D43029503947546049C2D04641B04949B
:1004100006D2029C039D641C00267541039502943C
:1004200001AC70CC009F7D1BB44101948C050694F7
:10043000079C890A611800950791019C0599A408F9
:100440006143090C0D464543680BEF040D466446B5
:1004500065436C0B3C43049FED047D1BAC4602D20C
:100460000025641C6841009E019D371B854108469C
:10047000584301950C46460FC5005443600F28436E
:100480006546E4002C1B02D20025401C6E41019DF4
:100490003F1AB5412846BD09800628438446A00975
:1004A000BF064E020699A40676180743079D002052
:1004B00068410A99079019430020099B0090604603
:1004C000FF1913434041E20F64003A43A446044637
:1004D000D71A8C41A04203D90120009020463A4609
:1004E000C70F941840416246D20F2243644664000D
:1004F0000494009CBE466400D71AA44604460297A2
:100500008C417746002F01D1A04204D96046401C9F
:100510008446029A2046C40FA64694184041049A85
:100520000546D20F224364466400D31A8D417146BA
:10053000002901D1A84202D928461A46641C10435A
:100540000122002800D0164361020020079B891970
:1005500004465C410223002C02DB49181346644127
:10056000089DCE0A2D145D194B056705E10A2C057F
:100570000D1908993E43C9076940002B08D09340E4
:1005800006D30022761C5141002B01D1760876005B
:100590001C4A002D43DB154241D0AA433FD03046D0
:1005A0000BB0F0BD06180D464D41174C7642AC41DC
:1005B0001AD395181C465C41134A6D42A24113D3CD
:1005C000012252054C00D4420AD15C00D4420BD027
:1005D0004B4002D592021143E2E749004908DFE7A8
:1005E0005940C90FC90718E000200849D8E7054855
:1005F00001420DD10342F7D0F2E700000000FF07EF
:10060000202300000000F07F0000E0FF0000F87FE2
:10061000114859400143C01241400020C0E7012366
:10062000089A9B069A4205DC032252078918C90FD3
:10063000C907B5E7052252078918074A1143D212A4
:100640005140ADE770B515461C4602460B4628469C
:100650002146FFF7DFFD70BDFFFFFF7F0346CA02A3
:10066000400D10B510430A1504D00124E4072043BF
:10067000002A05DB0A4CA21A04D4D040FF2A00DD70
:10068000002010BD4A00002B01D0012000E0002016
:10069000101801225205D042F2D8C817C04310BD2D
:1006A0001E0400001F22030C02D10F22000402D0FE
:1006B000030E03D004E00020014670470002083A10
:1006C000030F01D10001121F830F01D18000921E80
:1006D000002801DB4000521E120551184205C012CD
:1006E000411810467047C10FC90700D0404201228F
:1006F00092071143D6E701218907D3E7F0B58B4C68
:100700000F09254689B0BD437BD01D092646AE435F
:10071000FAD00E465E402740F60F3E43254071D08A
:1007200024012142FBD0FF24AD19A4042D1B039505
:1007300001252D05DB02DB0AC9022B43C90A294327
:100740001E010901040F130F050121431701880B36
:10075000820391432D098C46A90B1E438A039543BE
:10076000B30B9A0396433F09BA0B9403A74302962F
:100770002E467E430497B6464E19D7190C4601966D
:10078000544305977E43371B7646BF1B3601B6465A
:10079000BE0B361900967646BC043719009C01D36F
:1007A000641C00946400002F01D001263443029E93
:1007B000049F754366467E430496760034196E00A6
:1007C00034190094029C019E1C196643751BAE46A9
:1007D000069465464519059C05956C435943754635
:1007E0000891691A0191049E01465143A41B04918A
:1007F000611A009C0791E10605D0610901221143AD
:1008000002E072E06EE06109089D00272C0A2D06C7
:100810006918049D7C412A0A2D066918019D6241D0
:10082000AC0DAD026D185441079A910D9202551905
:100830006141029A644658435443069B059A5A43C1
:10084000121A131B9A0E9B015B187A41010B0005CB
:10085000C3185141220A200644195A419A4200D233
:10086000491C01204002814203D315230226F6438E
:1008700002E014230326F6432020C51AA940174698
:10088000AF40DA400A4320460399D8400914731850
:1008900019055118039A3843D2075140AC4009D08A
:1008A0000122944006D30022401C5141002C01D16A
:1008B000400840001E4A934212D301220398920638
:1008C000904207DB0520400709181A480143C0126F
:1008D000414004E0032040070818C10FC907002069
:1008E00009B0F0BD0020F107FAE705180C464C41AD
:1008F00011486D42A04115D394181A465A410E482A
:10090000644290410ED301204A004005824209D33F
:100910005A00824206D35940C90F084AC90700202D
:100920001143DDE700200649DAE700000000FF0779
:10093000FE070000FFFFFF7F0000E0FF0000F07FE8
:100940000000F87F10B501469E240002CA15A307D7
:10095000002A02D01843002A04DBA21A002A0CDD68
:10096000D04010BD1206120E01D140004008A21A5C
:1009700003D4D04040420028F3DDFF224800120695
:10098000904201D9002010BDC817C043584010BD87
:100990001F22030C02D10F2200041CD0030E01D130
:1009A0000002083A030F01D10001121F830F01D189
:1009B0008000921E002801DB4000521ED205511813
:1009C000021251181922904004D3491C002801D169
:1009D0004908490008467047C10FC90700D0404286
:1009E000012292071143D3E701218907D0E7754619
:1009F00000F022F8AE46050069465346C008C00024
:100A0000854618B020B5FFF7EFFB60BC002749080A
:100A1000B6460026C0C5C0C5C0C5C0C5C0C5C0C596
:100A2000C0C5C0C5403D49008D4670470446C0461C
:100A3000C0462046FFF78FFB004870475C0400204B
:100A400001491820ABBEFEE72600020070470000F7
:100A500000B58BB001210320400400F04FFA0121C2
:100A6000084600F06BFA0121C80200F067FA012184
:100A7000022000F053FA002108A80172C17202217D
:100A80000172002181720121C17203214172FF2094
:100A90000130099009A90920C00600F057F901208A
:100AA0004002099009A90920C00600F04FF9012071
:100AB0008002099009A90920C00600F047F9012029
:100AC000C002099009A90920C00600F03FF90222DE
:100AD00008210920C00600F081F902220921C80678
:100AE00000F07CF902220A210920C00600F076F904
:100AF00002220B210920C00600F070F9002168468F
:100B000001835048079068464183018408A881709A
:100B100006A94D4800F0C8FC0020039060216846FB
:100B200081800021818201820121C1800021C18256
:100B3000082141820021018101A9434800F098FB6E
:100B400001A9414800F0DEFB01A93F4800F028FC64
:100B500001A93D4800F070FC01213B4800F05AFB20
:100B6000022108A80172002181720121C1720321B2
:100B700041724020099009A90920C00600F0E6F85A
:100B80008020099009A90920C00600F0DFF80120A3
:100B9000099009A92D4800F0D9F80220099009A967
:100BA0002A4800F0D3F8012206210920C00600F0EF
:100BB00015F9012207210920C00600F00FF90122D2
:100BC0000021224800F00AF9012211461F4800F0D6
:100BD00005F90021684601834B20400107906846D3
:100BE0004183018408A8817006A9194800F05CFCC3
:100BF000002003906021684681800021818201826B
:100C00000121C1800021C18208214182002101818E
:100C100001A90F4800F02CFB01A90D4800F072FB60
:100C200001A90B4800F0BCFB01A9094800F004FC35
:100C30000121054800F0E0FA0121054800F0DCFA46
:100C40000BB000BD5F090000002C0140000400480B
:100C50000004004010B500F017F9FFF7F9FE10BDD1
:100C6000F0B585B004460E461746002539E0A06869
:100C7000FFF7B2FE02906068FFF7B6FE00900C200E
:100C800068433158009801F0F3FA0190029901F09D
:100C9000A9FA0390FFF756FE0C2169432246FF3262
:100CA00011325050E068FFF797FE02906068FFF73E
:100CB0009BFE00900C20684380194168009801F069
:100CC000D7FA0190029901F08DFA0390FFF73AFEEE
:100CD0000C2169432246FF32113289184860681C92
:100CE000C5B2BD42C3DB6770204600F035FFE07837
:100CF0001E2803DAE078401CE07004E00020E07079
:100D00002078401C207005B0F0BD7047704710B5CA
:100D100000F0A4F810BD00000149486170470000D0
:100D200000040140014600200022074B1B680B40D5
:100D30001A46054B5B690B40002B03D0002A01D0FB
:100D4000012000E00020704700040140F0B50A4691
:100D500000210023002400BF3DE001258D402B46EB
:100D600015681D402C469C4234D11579012D02D0C6
:100D70001579022D16D185684F000326BE40B54374
:100D8000856055794E00B540866835438560858815
:100D900001268E40B5438580858896798E40B6B20F
:100DA0003543858005684F000326BE40B543056086
:100DB00015794E00B540066835430560C5684F009B
:100DC0000326BE40B543C560D5794E00B540C66820
:100DD0003543C560491C1029BFD3F0BDF0B50023D1
:100DE00000244D07EE0E1546B5402B46CD10AE0043
:100DF00005462035AD594E07F70E0F26BE40B543C8
:100E0000CE10B60007462037BD51CD10AE003D468E
:100E1000AD591D432C46CD10AD003E467451F0BD7A
:100E2000002A01D0816100E0018570471CB50121D5
:100E3000880400F063F80121684601710221C17144
:100E40008803009003216846417169460148FFF715
:100E50007DFF1CBD0004004800BFFEE710B5012067
:100E60008002FFF75FFF002803D001208002FFF718
:100E700053FF01208002FFF755FF002803D0012017
:100E80008002FFF749FF10BD70477047002182784C
:100E9000002A27D0184A03231B02D21803789B107C
:100EA0009B00D15802789207D30EFF229A400B463E
:100EB0009343194642789207120E03789B07DB0E84
:100EC0009A4011430C4A03231B02D21803789B104B
:100ED0009B00D1500278D306DB0E01229A40064BCC
:100EE0001A6007E00278D306DB0E01229A40024B1B
:100EF00080331A607047000000E100E0002905D04F
:100F0000054A52690243044B5A6104E0024A52699D
:100F10008243014B5A61704700100240002905D0FE
:100F2000054AD2690243044BDA6104E0024AD269FD
:100F30008243014BDA61704700100240002905D05E
:100F4000054A92690243044B9A6104E0024A92699D
:100F50008243014B9A6170470010024070470000C5
:100F60000CB500200190009031480068012109046F
:100F700008432F49086000BF2D480068012149043B
:100F8000084000900198401C01900098002804D16E
:100F90000521090201988842EED125480068012107
:100FA00049040840002802D00120009001E0002000
:100FB00000900098012839D111201E4908601C4872
:100FC00040681B49486008464068486008464068D9
:100FD0003F210904884316494860084640681121AA
:100FE00009040843124948600846006801210906BF
:100FF00008430F49086000BF0D48006801214906F9
:1010000008400028F8D00A48406880088000084955
:10101000486008464068022108430549486000BF0F
:10102000034840680C2108400828F9D10CBD000095
:10103000001002400020024010B500F061FE0128BF
:1010400001D000F04BFE00F001F810BD7047000029
:10105000074908800021074A9161054909887D22D6
:10106000D2005143491E034A516107211161704763
:101070002001002000E000E010B51B4800680121BD
:10108000084319490860084640681849084016494D
:101090004860084600681649084013490860084639
:1010A00000680121890488430F49086008464068A8
:1010B0003F21090488430C4948600846C06A00097A
:1010C0000001C8620846006BFF215431884306497D
:1010D00008630846406B4008400048630020886071
:1010E000FFF73EFF10BD0000001002400CB8FFF8F3
:1010F000FFFFF6FE704710B500F002F810BD0000CB
:1011000010B50121314800F096F800285CD001218B
:101110002E4800F06EF82E480069012836D12C4880
:1011200080692C49096840182B490968884205D90B
:1011300029480068401C284908600BE00120274925
:10114000087023488069002804D021488069401E27
:101150001F4988611E48C069214909684018214912
:101160000968884205D91F480068401C1D4908606D
:101170002AE001201C4908701548C069002823D0C6
:101180001348C069401E1249C8611DE0124800683A
:1011900010490968884205D20F480068401C0E4972
:1011A000086002E001200D4908700E4800680C49F3
:1011B0000968884205D20B480068401C094908604C
:1011C00002E001200849087010BD00000010004036
:1011D00074030020080100201401002010010020E9
:1011E0000C0100201801002011010020CA430282D6
:1011F0007047CA4302827047002904D00288012345
:101200001A43028003E00288014B1A4002807047B3
:10121000FEFF0000002907D04422125A0123DB03FD
:101220001A4344231A5205E04422125A53045B0C19
:1012300044221352704730B5024600200023002498
:10124000158A0D402B4695890D402C46002B03D066
:10125000002C01D0012000E0002030BD002A03D086
:1012600083890B43838102E083898B4383817047A9
:1012700070B5002400220023058C1C4E35400584E7
:10128000028C8388048B194D6F3D2C40B51E2C4079
:101290000D882C43751E2A408D892A434D882A4388
:1012A000134DA84208D0134DA84205D0124DA842B4
:1012B00002D0124DA84212D10C4DED1F2A40CD890B
:1012C0002A430A4DED1E2A408D882A43074DFF3DD3
:1012D0002B400B4D2B400D8A2B434D8A2B43838093
:1012E00004838D684563028470BD0000FEFF00002A
:1012F000002C0140004001400044014000480140F2
:10130000FFFD000070B5002400220023058C1E4E56
:1013100035400584028C8388048B1C4D2C401C4D69
:101320002C400D782D062D0C2C43174D103D2A40D6
:101330008D892D052D0C2A434D882D052D0C2A4312
:10134000144DA84219D1104D703D2A40CD892D056C
:101350002D0C2A430C4D303D2A408D882D052D0C37
:101360002A430D4D2B400D4D2B400D8AAD042D0C05
:101370002B434D8AAD042D0C2B43838004838D6851
:101380008563028470BD0000EFFF0000FF8F000046
:10139000FFFC0000002C0140FFFB0000FFF70000F5
:1013A00070B5002400220023058C1C4E35400584B6
:1013B000028C8388848B194D90352C40174DFD3558
:1013C0002C400D882C43164D2A400D7B2D062D0CEC
:1013D0002A438D782D062D0C2A43124DA84217D191
:1013E000114D2A408D7B2D062D0C2A430F4D2A408E
:1013F0000D792D062D0C2A430D4D2B400D4D2B4004
:101400000D8A2D052D0C2B434D8A2D052D0C2B43BC
:10141000838084838D68C563028470BDFFFE0000F5
:10142000FFFD0000002C0140FFF70000FFFB000063
:10143000FFEF0000FFDF000070B500220023002452
:10144000058C134E35400584038C8488828B114DA6
:101450002A40114D2A400D782D062D0C2A430F4DA0
:101460002B400D7B2D072D0C2B438D782D072D0C3C
:101470002B430B4DA84205D10A4D2C400D8AAD05DA
:101480002D0C2C43848082838D680564038470BD99
:10149000FFEF0000FF8F0000FFFC0000FFDF0000F7
:1014A000002C0140FFBF000000220288154B98422B
:1014B00006D001239B07984202D0134B984203D1D8
:1014C000124B1A404B881A43114B984203D0114BD0
:1014D0001A400B891A4302804B68C3620B8803854C
:1014E000084B984208D00C4B984205D00B4B9842C1
:1014F00002D00B4B984201D18B7A03860123838261
:1015000070470000002C0140000400408FFF0000E5
:1015100000100040FFFC000000400140004401407A
:10152000004801401FB501211020FFF7F7FC2F21D3
:10153000684681800920029000216846C18081812F
:10154000817301A90E48FFF7AFFF112168460170B2
:101550000021417001218170FFF798FC01210848AA
:10156000FFF744FE002080F3108800BF01221146DF
:101570000348FFF773FE01210148FFF73DFE1FBD41
:1015800000100040704730B47446641E2578641C17
:10159000AB4204D3635D5B00E31830BC18471D46C3
:1015A000F8E7FEB504460D4601206070400201597F
:1015B000832080000151812080000059832189000F
:1015C00061184860A068FFF707FA01906068FFF7AC
:1015D0000BFA0090296800F04BFE0746019900F0D5
:1015E00001FE0646FFF7AEF9012149020851E06805
:1015F000FFF7F2F901906068FFF7F6F9009069686B
:1016000000F036FE0746019900F0ECFD0646FFF7B4
:1016100099F9812189000851204600F051F920787C
:10162000401C2070FEBD000030B5034600210022A2
:101630000B4DA9690B4D2D885D432C4600BF084D0D
:10164000A869814209D0884204D96D692D1A6D18A4
:10165000AA1801E00D1AAA180146A242EFD330BD24
:1016600000E000E02001002010B5044619E0A07859
:101670000C2148432146203108580D490860A078C4
:101680000C214843214620314018406808494860F1
:10169000204600F083F8064800F0C2FCA078401C09
:1016A000A070A07861788842E1DB0020A07010BDB6
:1016B0007403002000210170C17081700022832119
:1016C00089000A50002183229200821851601C2157
:1016D00041600F21C94381604F21C943C1601C2172
:1016E00001610F21C94341614F21C943816101213A
:1016F0004170704713B504460198C007C00F002819
:1017000005D00122D1030548FFF78AFB05E000223E
:101710000121C9030148FFF783FB1CBD00040048F9
:101720008AB0012080F3108800BF3020FFF790FCC2
:10173000FFF790FAFFF77AFBFFF7F4FE1448006812
:10174000400840001249086008460068C007C00F02
:10175000014601900020FFF7CDFF05200002029016
:1017600003907D204001049002A800F0F3FB09489B
:10177000029003907D204001049002A800F0EAFB53
:101780000548FFF797FF01E000F0F0F8FCE70000E4
:101790001C01002040FDFFFF5C010020F0B589B076
:1017A00004460F46A0780C214843214620310858B2
:1017B000002808D0A0780C21484321462031401849
:1017C0004068002804D1E069B860E069F86075E01D
:1017D000A2780C235A4323462033D2185068A278AB
:1017E0000C235A43234620339958002901DB0A462B
:1017F00000E04A42002801DB034600E043429A42EF
:101800002EDBE069B860A1780C22514322462032D9
:1018100089184868FEF767FF490049080191009060
:10182000A1780C225143224620325058FEF75BFF2C
:10183000490049080546019B009AFEF7EBFC05911B
:101840000490E069FEF757FF03910290059B049A0C
:10185000FEF754FF07910690FEF700FFF8602DE0B9
:10186000E069F860A1780C2251432246203250589A
:10187000FEF739FF4E0076080546A1780C22514349
:101880002246203289184868FEF72DFF4900490892
:101890002A46334601910090FEF7BCFC0591049066
:1018A000E069FEF728FF03910290059B049AFEF77A
:1018B00025FF07910690FEF7D1FEB86009B0F0BD94
:1018C0000121490209584A428321890009585118C7
:1018D00001628121890009584942832292008218BD
:1018E00052688A18426270470B49096809680029E2
:1018F00001D1012100E00021002904D00021C943C9
:10190000064A116006E004490968C968C868034AC4
:101910004168116070470000280100205401002038
:101920004168382901D30A21C1614168382902D3AD
:101930000B21C16119E04168302902D30C21C1613A
:1019400013E04168282902D30D21C1610DE04168EF
:101950001E2902D30F21C16107E041681C2902D36F
:101960001021C16101E01221C1617047F8B57448CE
:1019700000780300FFF707FE150C4B545E646E748D
:101980007E8490969EA4ACB2BAC0C5CBD0D6DE0001
:1019900001206C49086164208861C86168498868D1
:1019A000FFF71AF8064666494868FFF71DF807462C
:1019B00065480168384600F05BFC0546314600F09A
:1019C00011FC0446FEF7BEFF604908605C49C86828
:1019D000FFF702F806465A494868FFF705F8074638
:1019E00059484168384600F043FC0546314600F04E
:1019F000F9FB0446FEF7A6FF544948605048FFF73C
:101A00005FFF4F480078401C4D49087093E000206C
:101A10004C49086110224C494948FFF721F98AE0F6
:101A20004748806860304649886047494448FFF726
:101A3000B8FD80E0102244494148FFF711F97AE0EF
:101A40003F48C06860303E49C8603F493C48FFF7A6
:101A5000A8FD70E010223C493948FFF701F96AE01F
:101A60003748806860383649886037493448FFF71E
:101A700098FD60E0102234493148FFF7F1F85AE050
:101A800020202F4988604042C860402048602E498D
:101A90002B48FFF786FD4EE010222B492848FFF720
:101AA000DFF848E030202649486027492448FFF7FE
:101AB00078FD40E0102224492148FFF7D1F83AE0B0
:101AC00020201F49486020491D48FFF76AFD32E089
:101AD00010221D491A48FFF7C3F82CE0402018498E
:101AE000486019491648FFF75CFD24E010221649AA
:101AF0001348FFF7B5F81EE015491148FFF751FDEF
:101B000019E0042212490E48FFF7AAF813E0114920
:101B10000B48FFF746FD0EE004220E490848FFF788
:101B20009FF808E008490648FFF73BFD09200449F3
:101B3000087000E000BF00BF0148FFF795FDF8BD49
:101B40005C01002074030020802400085C03002056
:101B5000402500087025000810B50246002324E047
:101B6000581C0C2148431146FF311131085844429A
:101B70000C205843085824180C205843F0390C50B6
:101B8000581C0C2148431146FF3111314018406860
:101B900044420C2058434018406824180C205843F5
:101BA000F03940184460581CC3B25078401E984227
:101BB000D6DCFF201130805844425078401E0C2162
:101BC00048431146FF311131085824185078401EFF
:101BD0000C214843114620310C50FF20153080580D
:101BE00044425078401E0C2148431146FF311131C8
:101BF0004018406824185078401E0C214843114674
:101C00002031401844601046FFF78AFE10BD01469F
:101C10000A694B68886898608B68486858605068A3
:101C2000884201D188685060002008611068401E19
:101C300010601068704742684A6093688B609368D0
:101C400059609160086103685B1C03607047000085
:101C50001D480068002803D001201C49086032E0BC
:101C600000201A4908600BE019480068002802D1DA
:101C700072B600BFFEE716480068401E14490860AF
:101C8000134800681421484312490858002801D11C
:101C9000012000E000200028E6D10D490968142247
:101CA00051430C4A8818416849684160014608312F
:101CB00042688A4202D14168496841604168C96806
:101CC000054A116000BF70475801002048010020FC
:101CD0003C010020940300202401002010B5FEF7F1
:101CE00051FA044600F01EF8002803D00120000736
:101CF000024948602046FEF749FA10BD00ED00E0B9
:101D000006490968002901D1012006E00449096853
:101D1000002901D1022000E000207047400100208E
:101D200058010020F8B500200090434800680028C2
:101D300074D142480068401C404908600846066863
:101D4000002E1CD13E4800680068002801D1012007
:101D500000E00020002802D172B600BFFEE738483C
:101D600007683848006836490860364807603648D2
:101D70000068401C34490860FFF7B6FD00BF3348D7
:101D8000006886423DD300BF2D48006800680028E7
:101D900001D1012000E00020002804D00020C04331
:101DA0002A4908602CE026480068C068C468656855
:101DB000AE4202D22548056022E0201DFFF727FF32
:101DC000A06A002803D020461830FFF720FF2049E2
:101DD000E06A0968884202D91D49E06A0860142255
:101DE000E16A51431B4A8818211DFFF724FF1A4955
:101DF000E06A0968C96A8842C6D301200090C3E737
:101E000000BF15480068C06A1421484311490858AA
:101E1000012808D90120009005E0FFE70F4800687D
:101E2000401C0E4908600E480068002801D00120BF
:101E300000900098F8BD00005801002038010020F3
:101E4000280100202C0100204C010020540100201A
:101E50003C010020940300202401002044010020C4
:101E60004801002030B503460C466106490E48097A
:101E7000002806D0012815D0022828D0032851D1E7
:101E80003BE008464000304D285A304D6863002042
:101E9000E863A863084640002D4D285A2B4D403575
:101EA00028603FE0084620384000294D285A274D39
:101EB00068630020E863084620384000224D285A15
:101EC000224DA8630020214D403528602AE00020E3
:101ED0001E4D68630846403840001B4D285A1B4D74
:101EE000E863084640384000194D285A174DA8634A
:101EF0000020164D4035286014E00020134D686323
:101F0000084660384000124D285A104DE863002002
:101F1000A8630846603840000B4D285A0B4D4035E9
:101F2000286000BF00BF012A01D1A41C00E0A41E4C
:101F30001868002803DD1868401E186002E0186861
:101F4000401C1860204630BDF8230008002C0140DA
:101F5000382400083EB50446642002900190002019
:101F6000009050E0206800280BDA00222948016820
:101F70002046FFF777FF274908602068404202901B
:101F80000CE02068002809DD012222480168204673
:101F9000FFF768FF1F49086020680290606800280A
:101FA0000BDA00221C480168201D00F0A3F81A4932
:101FB00008606068404201900CE06068002809DD1C
:101FC000012215480168201D00F094F812490860AC
:101FD0006068019002980A2802DB01980A2802DA58
:101FE000A0680E30A06000980A2809DA0B49A068A2
:101FF000884205D2A0680E38A0600098401C00906E
:10200000A068FFF711FB20680028ABD160680028AA
:10201000A8D13EBD0001002004010020E70300001C
:1020200010B504462B49A06808602B49E068086099
:1020300000202A4908602A490860012029490870BF
:10204000294908703FE02748007801281BD100206B
:1020500024490870214908602068002808DA002215
:10206000224801682046FFF7FDFE204908600AE08B
:102070002068002807DD01221C4801682046FFF780
:10208000F1FE1A4908601848007801281BD1002089
:1020900015490870124908606068002808DA0022B3
:1020A00013480168201D00F025F8114908600AE076
:1020B0006068002807DD01220D480168201D00F03E
:1020C00019F80B49086020680028BCD16068002816
:1020D000B9D110BD080100200C010020140100201E
:1020E0001801002010010020110100200001002033
:1020F0000401002030B503460C466106490E48092C
:10210000002806D0012815D0022828D0032851D154
:102110003BE008464000304D285A304D68630020AF
:10212000E863A863084640002D4D285A2B4D4035E2
:1021300028603FE0084620384000294D285A274DA6
:1021400068630020E863084620384000224D285A82
:10215000224DA8630020214D403528602AE0002050
:102160001E4D68630846403840001B4D285A1B4DE1
:10217000E863084640384000194D285A174DA863B7
:102180000020164D4035286014E00020134D686390
:10219000084660384000124D285A104DE863002070
:1021A000A8630846603840000B4D285A0B4D403557
:1021B000286000BF00BF012A01D1A41C00E0A41EBA
:1021C0001868002803DD1868401E186002E01868CF
:1021D000401C1860204630BDF82300080004004071
:1021E0003824000870B501250400ED074C4020D4C8
:1021F000441A01D2001B0919C60D4B00F2B2FF2A86
:1022000029D01B0E2CD000020C02D31A2C43DC4028
:102210002843051910D2280A02D3401C6D0611D09C
:10222000761EF6058019FF2A00DA70BDC00DC005C4
:1022300070BD694000F07AF801200543C541521C89
:10224000761CE8E764089C40C90161408900E7D139
:102250000124A043E4E71B0E440200D0034870BDF4
:10226000002AFCD1C00FC00770BD00BF0000C07FB6
:1022700070B5420064414B005C41120E39D01B0E18
:1022800038D0FF2A3CD0FF2B3AD040024902400A06
:10229000490A060045184E43000A090AD218484365
:1022A000ED017F3A0104731A4019190C4318990F74
:1022B00004D001215B0849075B1A521CD80904D3DA
:1022C000401CF50301D19D0607D0FF2A08D2D50591
:1022D00006D0E4072043401970BD0125A843F4E768
:1022E000002A01DCE00770BD2402FF202043C00566
:1022F00070BD1B0EFF2A03D0FF2B01D0E00770BD7D
:10230000FF2645003606B54206D84D00B54203D833
:10231000D218FF2A00D0E7E7004870BD0000C07F58
:1023200070B501250400ED074C4022D4441A02D2B6
:102330006C40001B0919C60D4B00F2B2FF2A4BD0AE
:102340001B0E50D000020C02D31A2C43DC40A843D1
:10235000051B05D5AD0019D36D08761E521E37D06A
:10236000F605280A01D2801970BD70416D0603D0B0
:1023700070BD6940FFF73CFF9C4009026140490085
:1023800001D0401E70BD0124A04370BD6D081DD05A
:1023900001202B0C01D12D0410302B0E01D12D0268
:1023A00008302B0F01D12D01001DAB0F01D1AD0065
:1023B000801CEB0F01D16D00401C6D00361A121A03
:1023C000680AF5054019012A02DB70BD002070BDC6
:1023D000C036300AC00770BD1B0E440201D1FF2B6E
:1023E00000D1024870BD002AF0D070BD0000C07F4F
:1023F000203137322032303000007600EB006001AF
:10240000D4014702B8022803960302046B04D104E6
:1024100035059505F2054B06A006F2063E0787072F
:10242000CB070A0844087908A808D308F808170950
:102430003109450953095C095F095C0953094509DC
:1024400031091709F808D308A808790844080A08C8
:10245000CB0787073E07F206A0064B06F205950557
:102460003505D1046B04020496032803B802470221
:10247000D4016001EB007600203137322032303059
:10248000290535BF290535BF0000803F66836CBF35
:10249000A2EEC3BE0000803F000080BF000000002D
:1024A0000000803F66836CBFA2EEC33E0000803F09
:1024B000290535BF2905353F0000803FA2EEC3BE88
:1024C00066836C3F0000803F000000000000803FFA
:1024D0000000803FA2EEC33E66836C3F0000803F59
:1024E0002905353F2905353F0000803F66836C3F55
:1024F000A2EEC33E0000803F0000803F00000000CD
:102500000000803F66836C3FA2EEC3BE0000803FA8
:102510002905353F290535BF0000803FA2EEC33EA7
:1025200066836CBF0000803F00000000000080BF99
:102530000000803FA2EEC3BE66836CBF0000803FF8
:10254000290535BF290535BF0000803F290535BF66
:102550002905353F0000803F2905353F2905353FD6
:102560000000803F2905353F290535BF0000803F29
:10257000000080BF000000000000803F000000005D
:102580000000803F0000803F0000803F000000000E
:102590000000803F00000000000080BF0000803F7E
:1025A00080807F7E7D7C7B7A797877767675747390
:1025B000727171706F6E6E6D6C6C6B6A6A6968684F
:1025C000676666656464636362616160605F5F5EE5
:1025D0005E5D5D5C5C5B5B5A5A595958585757565B
:1025E00056555555545453535252525151505050C0
:1025F0004F4F4F4E4E4D4D4D4C4C4C4B4B4B4A4A12
:102600004A49494948484847474747464646454555
:10261000454444444443434343424242424141418E
:1026200040260008000100205C00000004010008B2
:102630009C2600085C0100206409000020010008BD
:1026400000640000006400000000000000000000C2
:10265000000000000000000000000000000000007A
:10266000000000000000000000000000000000006A
:10267000000000000000000000000000000000005A
:10268000000000000000000000000000000000004A
:0C2690000000000000000000000000003E
:04000005080000C12E
:00000001FF
